:020000040000FA
:1000000000000320DD0500000D410000F1050000A7
:10001000F3050000F5050000F705000000000000F2
:10002000000000000000000000000000F9050000D2
:10003000FB05000000000000FD050000FF050000BA
:100040000106000005060000090600000D0600007C
:100050001106000015060000190600001D0600002C
:100060002106000025060000290600002D060000DC
:100070003106000035060000390600003D0600008C
:1000800041060000C5060000C5060000C5060000C8
:10009000C5060000C5060000C5060000C506000034
:1000A00045060000490600004D060000510600000C
:1000B00055060000590600005D06000061060000BC
:1000C00065060000690600006D060000710600006C
:1000D00075060000790600007D060000C5060000D8
:1000E000C5060000C5060000C5060000C5060000E4
:1000F000C5060000C5060000C5060000C5060000D4
:10010000C5060000C5060000C5060000C5060000C3
:10011000C5060000C5060000C5060000C5060000B3
:10012000C5060000C5060000C5060000C5060000A3
:10013000C5060000C5060000C5060000C506000093
:10014000C506000081060000850600008906000043
:100150008D06000091060000C5060000C5060000DF
:10016000C5060000C50600009506000099060000BF
:100170009D060000A1060000A5060000A9060000DB
:10018000AD060000B1060000B5060000A93A000067
:10019000953A0000813A0000C5060000C50600003F
:1001A000C5060000C5060000C5060000C506000023
:1001B000C5060000C5060000C5060000C506000013
:1001C000C5060000C5060000C5060000C506000003
:1001D000C5060000C5060000C5060000C5060000F3
:1003F000C5060000C5060000C5060000FFFFFFFFA0
:10040000FFFFFFFFFFFFFFFFFFFFFFFFFEFFFFFFFD
:1004100000F002F800F0BAF80AA090E8000C82445C
:100420008344AAF10107DA4501D100F0AFF8AFF239
:10043000090EBAE80F0013F0010F18BFFB1A43F0C2
:100440000103184710AC000030AC00000A444FF024
:10045000000C10F8013B13F0070408BF10F8014B23
:100460001D1108BF10F8015B641E05D010F8016B68
:10047000641E01F8016BF9D113F0080F1EBF10F8CC
:10048000014BAD1C0C1B09D16D1E58BF01F801CBEF
:10049000FAD505E014F8016B01F8016B6D1EF9D572
:1004A0009142D6D370470000002300240025002687
:1004B000103A28BF78C1FBD8520728BF30C148BFC7
:1004C0000B6070476E2900F01186702900F06D876F
:1004D000662908F09F87652908F09C87672908F03E
:1004E0009987612908F0988703681B0A28BF41F0A3
:1004F0008001692900F0BE85642900F0BB8575295B
:1005000000F0B8856F2900F0FA86782900F0398765
:10051000E92900F09586E42900F09286F52900F09B
:100520008F86EF2900F0F786F82900F038870368F6
:10053000DB0928BF41F08001632901F01987732985
:1005400001F01E87E32901F02987F32901F02E87A6
:10055000002070471FB508F02AFF9DE8030000F057
:10056000F1FC00F032FB01F0D7FF04000020002175
:1005700008F0D4FA401C60600020002108F0B8FAAE
:10058000E06001F0E9F900F09DFC1FBD06F026F9DE
:10059000114603B406F036F903BCFFF7DBFF02F0A7
:1005A000ADFC06F0AFFB00000B49D1F800C04A6873
:1005B0005CF8043B1068184442F8040B8C4528BFD3
:1005C000A1F1DC0C8A4228BFA1F1DC02C1F800C015
:1005D0004A6020F000407047540C002072B63A4840
:1005E0003A4901603A48804762B63A480047FEE718
:1005F000FEE7FEE7FEE7FEE7FEE7FEE7FEE7FEE7D3
:1006000035480047354800473548004735480047DA
:1006100035480047354800473548004735480047CA
:1006200035480047354800473548004735480047BA
:1006300035480047354800473548004735480047AA
:10064000354800473548004735480047354800479A
:10065000354800473548004735480047354800478A
:10066000354800473548004735480047354800477A
:10067000354800473548004735480047354800476A
:10068000354800473548004735480047354800475A
:10069000354800473548004735480047344800474B
:1006A0003348004732480047314800473048004748
:1006B000304800473048004730480047304800473E
:1006C00030480047FEE7000008ED00E000000000B1
:1006D000DD4200001104000001390000553900001E
:1006E000613900006D39000079390000853900005A
:1006F000913900009D390000A9390000B53900008A
:100700000D39000019390000253900003139000089
:100710003D39000049390000C5060000F53F0000E2
:1007200025400000ED4100003D420000C9400000AE
:1007300085400000C506000005430000C506000016
:100740001D430000C506000035430000C50600003B
:100750004D430000C50600008D42000065430000C7
:10076000C50600007D430000C5060000554000009E
:10077000B5310000B1410000C5060000C50600000B
:10078000C5060000C50600000000000000000000D3
:10079000000000000000000000000000004870475A
:1007A000780A002070B5064600F0B0FB056806F137
:1007B0000B0020F00704B4429CBF002070BD2B4604
:1007C0006A68BAB11068A04210D304F108018842E7
:1007D0003CBF5068586007D35168101941601168D8
:1007E000091B016058601460101D70BD13465268EB
:1007F000002AE7D12146284600F090FB0028DED1F0
:1008000070BD70B50446051F00F080FB0068002C29
:1008100014BF446870BD002C18BFAC423CBF2046DA
:100820006468F8D301680A18AA4218BF456003D16A
:100830002A6805461144016028684119A1421CBF7D
:100840006C6070BD6168696021680844286070BD93
:1008500053EA020C00F069802DE9F04B4FF00006DE
:10086000002B1FBFB3FA83F503FA05F424FA05F64B
:100870005E4012BF1643B2FA82F502FA05F4C5F1E2
:1008800020051EBF22FA05FC44EA0C04203556EA76
:10089000044C4FEA144418BF641C4FF000084FF09A
:1008A0000009904271EB030C39D3002919BFB1FA4A
:1008B00081F701FA07F6B0FA80F700FA07F6C7F1F8
:1008C00020071EBF20FA07FC46EA0C062037B6FBBD
:1008D000F4FCA7EB0507103F07F01F0BCBF1200638
:1008E0000CFA0BFB2CFA06F644BFB3460026202F69
:1008F000A4BF5E464FF0000B5BEA060C08BF4FF04A
:10090000010B19EB0B09ABFB027C48EB0608C01B83
:1009100006FB02CC0BFB03CC71EB0C01C1E70B46D1
:10092000024641464846BDE8F08B13B54FF0000043
:100930004FF00001AFF30080BDE81C407047B2F1FA
:1009400020030AD5C2F1200301FA02F120FA03F3D1
:1009500000FA02F041EA0301704700FA03F14FF098
:1009600000007047B2F120030AD5C2F1200320FA3B
:1009700002F001FA03F321FA02F140EA03007047A2
:1009800021FA03F04FF00001704700007CB51D46CE
:1009900016460C00009001D02044401E074B7B44BB
:1009A0002A4669460190304600F0B9FB05461CB165
:1009B0000020694600F0C6FB28467CBDAD0700005C
:1009C0000B460146184600F0CBBB000070B504464C
:1009D000C068810713D0800601D5A56A04E0A1692B
:1009E000606808442169451A204600F071FF002222
:1009F00006462946204600F097FE304670BD00208E
:100A000070BD70B510B1BDE87040DFE70025074C40
:100A10006E1E07E02046FFF7D9FF00B13546206D76
:100A200020F00104002CF5D1284670BD7C0A00207E
:100A300070B50D46044604E0294606F073F9401CE3
:100A400004D014F8010B0028F6D170BD4FF0FF3030
:100A500070BD00002DE9F0410C46074616461046D1
:100A600000F078F82078611C61280AD0722802D042
:100A700077283CD102E00125002405E0022504246A
:100A800002E0082448F2020511F8010B2B2806D0D9
:100A9000622809D011F8010C74280AD00BE045F047
:100AA000030544F00204EFE745F0040544F00104B7
:100AB000EAE744F010043846214605F005FF411CE2
:100AC00015D00021316171604FF40071F560F16162
:100AD0007061200704D530460222002100F024FE78
:100AE000306D40F0010030653046BDE8F0810020F7
:100AF000FBE72DE9F0410D460646104C206DC1077D
:100B000004D0410804D020F00104F7E722460EE0AB
:100B10005420FFF747FE07000ED0206D47F001017B
:100B2000084354212065384600F064F93A462946C6
:100B30003046BDE8F0418DE70020D6E77C0A002072
:100B400011B14FF4807201E04FF480624FF40073F2
:100B500000F066BE2DE9F04704464FF000094FF063
:100B6000FF37C568D4E90486A80707D0204600F0FF
:100B7000AFFE304605F058FE002802DA3846BDE8E0
:100B8000F087280502D54046FFF73BFE4C21204662
:100B900000F030F9206D20F0010020654846EEE7B6
:100BA0000B4910B5A1F17C020A4CC2E9371237217A
:100BB00006E000EB104342F82130074B00FB0340F6
:100BC0000B1EA1F10101F4DC10BD0120E8E70000DB
:100BD000F40B0020E119D666CD0D01000EB50546D7
:100BE00014460E4613A001F059FC284601F056FCAD
:100BF00016A001F053FC304601F050FC15A001F0A6
:100C00004DFC00218DF80B100A210DF10A008DF822
:100C10000A1008E094FBF1F201FB124294FBF1F49C
:100C2000303200F8012D002CF4DC01F037FC00F02C
:100C30002FFF00002A2A2A20617373657274696F7E
:100C40006E206661696C65643A2000002C2066693C
:100C50006C6520002C206C696E65200030B5034661
:100C60001D783DB10A4612F8014B1CB1AC42FAD1D5
:100C70005B1CF5E7181A30BD10B5431C02E010F8F4
:100C8000011B71B18107FAD14FF0013202C88C1AF1
:100C90008C4314EAC211F9D0C01A0A0603D0C01E50
:100CA00010BDC01A10BD0A0401D0801E10BD09027B
:100CB000FCD0401E10BD40EA010370B59B072ED149
:100CC0004FF00136042A2AD308C810C99D1B9D4342
:100CD000121F15EAC61517D0D8B2E1B2401A50EA71
:100CE000056110D198B2A1B2401A50EA05410AD16B
:100CF00023F07F4024F07F41401A50EA052102D1C1
:100D0000180EA0EB146070BDA342DBD018BA21BA54
:100D1000884201D9012070BD4FF0FF3070BD0AB983
:100D2000002070BD10F8013B11F8014B63B1A342E4
:100D30000AD1521E08D010F8013B11F8014B1BB12B
:100D4000A34201D1521EEDD1181B70BD10B5203A3F
:100D5000C0F00B80B1E81850203AA0E81850B1E874
:100D60001850A0E81850BFF4F5AF5FEA027C24BF2A
:100D7000B1E81850A0E8185044BF18C918C0BDE821
:100D800010405FEA827C24BF51F8043B40F8043BEA
:100D900008BF7047D20728BF31F8023B48BF11F89F
:100DA000012B28BF20F8023B48BF00F8012B7047F9
:100DB0004FF000020429C0F0128010F0030C00F084
:100DC0001B80CCF1040CBCF1020F18BF00F8012B02
:100DD000A8BF20F8022BA1EB0C0100F00DB85FEAD0
:100DE000C17C24BF00F8012B00F8012B48BF00F89C
:100DF000012B70474FF0000200B51346944696460B
:100E0000203922BFA0E80C50A0E80C50B1F120011D
:100E1000BFF4F7AF090728BFA0E80C5048BF0CC0CB
:100E20005DF804EB890028BF40F8042B08BF704729
:100E300048BF20F8022B11F0804F18BF00F8012B9B
:100E4000704700004FF0013C50F8042B51F8043B70
:100E50009A4221D1A2EB0C03934313EACC1317D18E
:100E600050F8042B51F8043B9A4215D1A2EB0C0325
:100E7000934313EACC130BD150F8042B51F8043BE5
:100E80009A4209D1A2EB0C03934313EACC13DBD0B3
:100E90004FF00000704700BFD01A01BAB1FA81F1DB
:100EA00001F0180122FA01F0CB40C1F12001DBB2C0
:100EB000C0B2C01A2CFA01F3D11A914311EAC3113E
:100EC000E6D1704770B5064C7C44064D7D4403E086
:100ED000206820448047241DAC42F9D170BD000039
:100EE000D4A20000D4A200002DE9F04117460E461E
:100EF000054633B107FB0354E41B2046B047A54227
:100F0000FAD1A5F10800BDE8F08100000048704763
:100F10005C0C0020704770477047704738B5044636
:100F20000A460020694601F0D0FA002808BF38BD03
:100F300002460099204600F0CBFD012038BD01207B
:100F400001F08CBAF8B501F0B5FA054600200C4660
:100F5000102000BF0646A819A0420DD932466946A6
:100F6000002001F0B2FA070008BF01F077FA0098FC
:100F7000A04218BF0546C419FFF7C8FF0560074621
:100F8000F01D20F007004619284600F00AF8B44288
:100F900008BFF8BDA21B31463868BDE8F84000F034
:100FA00097BD00210160C0E9011070471020704713
:100FB00070B5044685690068C10601D5302600E099
:100FC0002026C00707D070BDD4E9012130469047E4
:100FD000206A401C20626D1EF6D570BD70B50446B7
:100FE00085690078C00707D170BDD4E901212020B0
:100FF0009047206A401C20626D1EF6D570BD0968BE
:101000004A0501D540B27047C905FCD500B270470A
:1010100009684A0501D5C0B27047C905FCD580B240
:10102000704770B50C460546012A05D02878800621
:1010300000D5EA69002302E0012305E05B1C93422E
:1010400002D2E05C0028F9D1A869E618C01AA861AC
:10105000286A184428622846FFF7AAFF04E0D5E969
:10106000012114F8010B9047B442F8D32846FFF74A
:10107000B5FF70BD2DE9F0410646002410687529C2
:10108000314616A510D0FFF7BAFF002802DA404219
:1010900013A507E031688A0701D512A502E04907C8
:1010A00004D511A5012401E0FFF7B2FF00210A22B7
:1010B00006F1240709E0B0FBF2FCB0FBF2F302FBFF
:1010C0001C00303078541846491C0028F3D12346C0
:1010D0002A463046BDE8F04100F059BD000000004E
:1010E0002D0000002B0000002000000011680268A5
:1010F000006A530501D508700AE0D30501D50880C0
:1011000006E0130603D5C217C1E9000200E008603B
:101110000120704701694A1C02610878704700B5D8
:101120008FB0CDE901310021059105497944CDE920
:1011300003101146684600F043F90FB000BD0000EF
:10114000E5FFFFFF0A6802F8010B0A607047D1E96A
:1011500000239A4202D2531C0B60107070470000AB
:10116000074B70B50D467B44FFF7D9FF0446284670
:1011700000F0EAF910B14FF0FF3070BD204670BDAD
:10118000BB5B00002DE9FF5F15468A460446DFF889
:10119000AC80F8440027D8E900103E46CDE90010A5
:1011A00010E03AF816106A4602A801F024F9411C32
:1011B00007D02178890603D5E269391891420DD804
:1011C0000744761C2078800602D5E069B84205DD28
:1011D000AE42E6DB3AF816000028E2D1A069C01B57
:1011E000A0612046FFF7E4FED8E90010CDE9001029
:1011F000002017E03AF818106A4602A801F0FBF840
:10120000B0F1FF3F81460BD000250DF1080B05E042
:10121000D4E901211BF8050090476D1C4D45F7D31B
:1012200008F10100B0428046E4DB206A38442062C5
:101230002046FFF7D3FEBDE8FF9F0000E28D0000CF
:101240002DE9F0418046D21D22F007020025D2E9A7
:101250000002F52915A614D0011E72F1000106DA6C
:101260000023D0EB030063EB020211A608E0D8F8DC
:1012700000108B0701D50FA602E0490701D50EA685
:1012800001251146002408F1240704E000F03AFC8F
:1012900030323A55641C50EA0102F7D12B463246EF
:1012A00021464046BDE8F04100F071BC000000005E
:1012B0002D0000002B0000002000000030B40021B1
:1012C00000F1240408E002F00705D208303542EAB4
:1012D0004372DB086554491C52EA0305F3D10468E4
:1012E000002310A2250707D5A40600D421B1C469A4
:1012F00001230DA2641EC46130BC00F048BC10B5CF
:10130000044621461068FFF783FE02462046BDE8EA
:1013100010400023D2E7D21D22F00701D1E90023BB
:10132000CCE700000000000030000000F0B40D46E3
:101330000188090502D5214C7C4402E01F4C7C4405
:101340000E34002100F1240608E002F00F07120914
:10135000E75D42EA03721B097754491C52EA03070E
:10136000F3D102780023120704D5702D06D009B1FD
:10137000022311342246F0BC00F009BC01231034D2
:10138000F8E770B504460D4621461068FFF740FEA9
:10139000024629462046BDE870400023C6E7D21D1C
:1013A00022F00703D3E90023C0E70368126843F083
:1013B000200303600823C3610023B7E7448C0000C7
:1013C0002DE9F05F894604464FF0000ADFF874B15A
:1013D000FB44C0F820A02046E1688847002874D06C
:1013E000252806D0D4E901219047206A401C2062BC
:1013F000F1E700265F462046E16888472028054639
:1014000007DB312D05D2781910F8200C08B10643FE
:10141000F1E7B00701D526F00406C4F81CA00027A8
:10142000C4F818A02A2D09D0284605F0DBF938B3F6
:1014300004EB8708303DC8F8185019E059F8041B30
:10144000204604EB87029161E1688847012F054639
:1014500018D1E069002820DA26F020061DE0D8F82F
:10146000180000EB800005EB40003038C8F8180089
:101470002046E1688847054605F0B4F90028EED11A
:10148000012F0AD02E2D08D12046E16888477F1C05
:101490000546022F46F02006C4DBA069002803DAC7
:1014A000404246F00106A061F00701D026F0100688
:1014B0006C2D0BD0682D09D04C2D39D06A2D35D02C
:1014C000742D35D07A2D33D016E038E0E1682F4600
:1014D00020468847B842054609D16C2F26D04FF4E4
:1014E0008060E168064320468847054604E06C2F8B
:1014F0001AD04FF4807006430DB3A5F141001928AE
:1015000002D8203546F400664A4629462046266021
:101510004E46FEF7D7FF80B101280BD0F61D26F00E
:10152000070000F1080956E74020E4E78020D8E7EB
:101530000020D6E706F104094DE7284652E7206A65
:10154000BDE8F09FD48B0000007B00F08000704766
:101550002DE9F04705460C46C86820F4201040F4F9
:101560008000C860800602D5084600F0D4F9E06823
:1015700041F282014FF0FF390140022903D0204699
:1015800000F072F9B5E000F42041B1F5004F0FD141
:10159000C00306D56168E06A884200D808466060EA
:1015A00006E02069E0626060606905F05DF9A061B5
:1015B000A0680022EEB200280DDAE1688B050AD49B
:1015C000C043A06041F490302260E0606068411C3C
:1015D00061600670A5E0E0689046226040F400502B
:1015E000E060206968BB606905F056F9012704F1E5
:1015F0002405A0B1A08910F4407F08D0E069FFF76E
:10160000D1F8206118B1E06840F4006016E0E761AD
:101610002561E06820F4407040F480600EE0E069ED
:10162000FFF7C0F800282061F1D0E06840F40060C6
:1016300010F4407FE06002D140F48070E0602069E7
:101640006060E06825696FF0010AC1051FD5616817
:10165000E06A884200D80846411B04D0224628464A
:1016600000F00CF9F0BBE068010203D5E562C4E9C3
:10167000015854E0691CE1626160E16940F4803026
:10168000491EC4E9021030462E70BDE8F087010201
:1016900002D500F480320AE06068411C6160067087
:1016A000E0680A2E40F48030E06006D00022E16A53
:1016B0006068814203D90B4602E00122F7E7034646
:1016C000A7895B1B7F0503D4E7699F4200DDE2B178
:1016D000814200D80146E5620F1AC4E90158002B87
:1016E00009DD00E005E022461946284600F0C6F86C
:1016F00008B14846C9E747B1A069E5626560C01B0B
:10170000A061E06840F01000E060E068000208D5E9
:101710006168A069E562491B08446560A0615046A4
:10172000B3E73046B1E700002DE9F0410446164624
:101730000D464769007B80072ED0384605F0ACF88F
:1017400050BB3EB3012E02D0022E25D104E020462C
:1017500000F030FE05441DE0384605F085F8E168EC
:10176000002841F01001E16005DA204600F07CF825
:101770000120BDE8F081C9030BD56268E16A91429E
:1017800000D81146A26911442269891A814200DDFC
:1017900008460544002D01DA0220EAE7E16A6068A4
:1017A000E268814206D29103E06203D522F400315F
:1017B00041F01002A6690027AE4213DCE16A8142C3
:1017C00001D90B4600E0034603EB060C2369ACEBA2
:1017D000030CAC4506DD814201D98C4600E084460D
:1017E0009C4505D1A760276042F02000A5620DE06E
:1017F000AD1BE669AE1B8142A66000D90846C01A3F
:10180000281A20605819606022F02000034908401F
:10181000E060002084F84870ABE70000BFCFD7FF3E
:1018200070B5C468A50713D0650211D4B2F5807FE6
:1018300009D0B2F5007F06D0B2F5806F08D1012340
:1018400000F1240106E05D1E6FF07F46B54201D332
:10185000012070BD0161C361416024F470611143D6
:10186000C160002070BD0000C16821F4001141F08A
:101870008001C16000218160016070472DE9F0475F
:10188000814614460E464FF0FF383248D5685769F6
:10189000054209D03846A16905F062F8002811DB3D
:1018A0002C48C0430540E5602B4632464946384641
:1018B00005F072F8A16920F00042B21A1144002824
:1018C000A16103D02046FFF7CFFF4046BDE8F08777
:1018D00070B504460569C06A6168884200D8084648
:1018E000E16821F42011E160C90312D5A84208D0B3
:1018F0002246411B2846FFF7C1FF10B14FF0FF30D1
:1019000070BD0020E562C4E90150E06820F4803039
:10191000E060002070BD10B50446C06820F02000D3
:10192000E060A16AA06988420DD02046FFF7D0FF91
:10193000E06820F4405040F01000E060A06AA06130
:101940002069E062606044F24001E0688843E06042
:1019500010BD00001000020010B542485421FFF7EE
:1019600049FA41485421FFF745FA40485421FFF70E
:1019700041FA3F493B483C4A3F4B08603D490A60B9
:101980003A491960531C0365481C1065012008651D
:101990003B48344A39A17844FFF75CF820B938480D
:1019A00078440A3800F053FD37482F4A35A178446F
:1019B000FFF750F820B9344878440A3800F047FD62
:1019C00032482A4A2FA17844FFF744F820B92F481B
:1019D00078440A3800F03BFD40232248DC00002117
:1019E0002246FFF71DFF20B125487844543800F007
:1019F0002EFD1D48224640230021FFF711FF20B194
:101A000021487844543800F022FD1848224610231B
:101A10000021FFF705FF002806D01C487844BDE8E8
:101A20001040563800F013BD10BD104870B5006D61
:101A300020F001040B48FFF78DF80B48FFF78AF8F8
:101A40000A48FFF787F809E0206D20F001052046DD
:101A5000FFF780F82046FEF7D4FE2C46002CF3D189
:101A600070BD00007C0A0020D00A0020240B00205A
:101A7000C4010020C8010020CC0100207200000039
:101A8000F67B000077000000E57B0000D57B0000BE
:101A900010B5002000F0D4FCAFF30080BDE810408A
:101AA000012000F00FB810B500F0E0FCBDE81040D8
:101AB00000F0C1BC08B569468DF800000320ABBE3C
:101AC00008BD000001491820ABBEFEE72600020059
:101AD000034640688C46002818BF88423CBF034636
:101AE0004068F8D318681844884207D00CF1030006
:101AF00020F00700001D411A521A0146081D0A6015
:101B0000FEF77FBE30B5B0F10A024FEA900E71F1D8
:101B100000034EEA817EB0EB0E0061EB91014FEACB
:101B2000101E4EEA017E10EB0E0041EB11114FEA40
:101B3000102E4EEA016E10EB0E0041EB11214FEA20
:101B4000104E4EEA014E10EB0E0041EB11414018D1
:101B500041F100014FEAD00040EA41704FEAD10163
:101B600010EB80054FEA810444EA907444EB0104D1
:101B70006D1944EB0404521BA3414FF0000348BF0E
:101B80000A3200D530BD401C41F1000130BD2DE9C5
:101B9000F0470D4699469246044600F12408016834
:101BA000880604D5E06921F01001216000E00120E1
:101BB000A84201DD471B00E00027A1697A1902EB6A
:101BC0000900081AA0612078C00602D42046FFF759
:101BD000EFF9002608E0D4E901211AF80600904741
:101BE000206A401C761C20624E45F4DB2078C0063B
:101BF0000AD52046FFF7DCF906E0D4E901213020C0
:101C00009047206A401C2062381EA7F10107F4DCCF
:101C100007E0D4E9012118F805009047206A401C2C
:101C20002062281EA5F10105F3DC2046FFF7D6F956
:101C30002078000602D50220BDE8F0870120FBE7EE
:101C400070472DE9FF4F0C461E464FF0FF378BB013
:101C5000D2E90001DDF860800A908A46C1F30A5596
:101C600005B93D46002108464FF00000BAF1000FCB
:101C700000F4400005DA00EB80004FF4400101EA77
:101C800050004FEA9059B9F1010F00DDB9460A98AA
:101C900050EA4A000ED044F61050A5F2FF354543F5
:101CA0002F14B8F1000F1ED07542291E1EDDC9F198
:101CB00000021CE0B8F1010F4FF0000001D030210C
:101CC00003E0F24305E02154401CB042FBDB304608
:101CD0000022002121540B99C1F80880C1E900209D
:101CE0000FB0BDE8F08FBD1B6D1CDEE74A4600DA81
:101CF000694206A800F054FC06AB93E8070003AB6A
:101D000083E8070050460A9900F030FD8DE807008F
:101D1000A0F500501F3800900398002D0ADD42F214
:101D20001F014A460844002303A90390684600F0B7
:101D300099FF09E0A0F500504A461F38002303A987
:101D40000390684600F0A3FF8DE807000004000C34
:101D500003D04FF0FF30410800E01046B8F1000F0B
:101D600003D00022009215461EE0751E05D4FFF731
:101D7000C9FE303262556D1EF9D5B34601220843C3
:101D800002D000227F1C04E02078302801D10022FC
:101D90007F1E002A099784D01DE0112D07DAFFF776
:101DA000B1FE303262556D1C50EA0102F5D1084394
:101DB00002D00098C8B10EE00021681E05E0235C47
:101DC000625C63542254401E491C8142F7DBAB46DF
:101DD000A81B401E0990002004F80B000B98099ADC
:101DE000C0F80880C0E9002B7AE711264FF0000800
:101DF00057E72DE9F04F88460446D21D22F007012F
:101E000091B0D1E90001CDE90A0104F0FDFA0246E2
:101E10000B98C00F01D02D2007E02068810701D565
:101E20002B2002E0202101EAC000032A099001D002
:101E3000072A05DB03464146204600F071FB0BE113
:101E40002078800601D5E06900E00620B8F1650F32
:101E5000814606D0B8F1660F18D0B8F1670F70D17F
:101E600031E00020B9F1110F009001DB112301E0F6
:101E700009F101030AAA01A90CA8FFF7E2FEDDE9B6
:101E80000C70002609F10105834647E001204B460E
:101E900000904FF000470AAA01A90CA8FFF7D1FE55
:101EA000DDE90DB00C995D46002610B909F101007D
:101EB0000D18B9EB050003D4C0F1FF3609F1010597
:101EC000A5EB09002BE0B9F1010F01DA4FF0010990
:101ED0000020B9F1110F0090484601DD112300E008
:101EE00003460AAA01A90CA8FFF7ABFEDDE90C70B6
:101EF0004D4600268346207800070AD4AB4500DA19
:101F00005D4601A8012D04DD411911F8011C30299D
:101F100007D04F4502DA17F1040F04DA0120824698
:101F20000FE06D1EEEE7002F02DCED1B3E4403E0E8
:101F3000781CA84200DD7D1CB81B00F1010A4FF09F
:101F400000472078000703D4AA4501DB4FF0FF3A91
:101F50000021B7F1004F0DF143088DF8431024D054
:101F600002202B23002F01DA7F422D230A21021E9B
:101F7000A0F1010000DC5FB197FBF1FC97FBF1F2EF
:101F800001FB1C7C17460CF1300C08F801CDEEE784
:101F9000A8F1010003702188090501D5452100E061
:101FA0006521A0F1010800F8011C09980FA9A1EB17
:101FB0000807FF1D00B10120411901EBEA70A1697A
:101FC0003844081A401EA0612078C00602D420467A
:101FD000FEF7EEFF099828B1D4E901219047206A65
:101FE000401C20622078C00622D52046FEF7E0FF84
:101FF0001EE0002E04DBB34502DD01A8805D00E099
:102000003020D4E901219047206A401C2062761CD0
:10201000AAF101005FEA000A0AD100F07DFAC06867
:102020000168405CD4E901219047206A401C20628D
:10203000281EA5F10105DCDC07E0D4E9012118F830
:10204000010B9047206A401C2062381EA7F101074F
:10205000F3DC2046FEF7C2FF032011B041E600008A
:102060002DE9F04F04460D46D21D22F0070089B03D
:10207000D0E900974846394604F0C6F90246F80F01
:1020800001D02D2307E02068810701D52B2302E032
:10209000202101EAC0038DF820300BB1012000E0BF
:1020A0000020032A824601D0072A04DB2946204665
:1020B00000F036FA3FE12078800601D40D2500E0DB
:1020C000E569C7F30A560D2D49DA00214FEA175B7F
:1020D00008464FF00000002F00F4400007DA00EB44
:1020E00080004FF4400100EBD07001EA60008115E0
:1020F000012901DD4FF0FF3100224FEA850CBCF1D0
:10210000180F06D31346ACF118004FF08052C240AE
:1021100003E04FF4801323FA0CF30CF10C0CBCF128
:10212000200F04D3ACF1200C09FA0CF001E007FAFF
:102130000CF000294FF0004801DD18B90FE00ED176
:1021400040450CD319EB02095F4121B9404502D14A
:102150009F4329EA0209BBEB175F00D0761C208859
:10216000000502D57B48784402E07A487844193863
:1021700008AA302302F80A30037C0AF10101002E7C
:102180000AF1020A53546A4602DC4FF0300101E0C2
:102190004FF031014FF001088DF8001002D0A6F287
:1021A000FF3603E059EA470100D06B4E002D02DCF8
:1021B0002178090704D54FF002082E218DF801106F
:1021C000C44600210BE0C7F303433F01C35C491C35
:1021D0006D1E02F80830052908F1010801DA002D0A
:1021E000F1DC00210CE000EB1973491C1B786D1E1B
:1021F000082902F808304FEA091908F1010801DA44
:10220000002DF0DC21688B0602D516E0A8F101084C
:10221000E04505DD02EB080313F8013C302BF5D057
:10222000B8F1000F09DD02EB080313F8013C2E2B77
:1022300003D1090701D4A8F10108002D05DD3E21D5
:1022400002F808106D1E08F10108407C002E02F80B
:10225000080008F1010804DA2D20764202F808008F
:1022600002E02B2002F808000A214FF47A7086421F
:1022700008F101080BDB96FBF0F3303302F808306D
:1022800096FBF0F308F1010800FB136601E0642EF1
:102290000CDB642096FBF0F3303302F8083096FB39
:1022A000F0F308F1010800FB136601E00A2E06DBDB
:1022B00096FBF1F0303002F8080008F1010896FBB7
:1022C000F1F001FB1060303002F80800A16908F15C
:1022D000010808EB050202EB0A00081AA061207849
:1022E000C00602D42046FEF763FE216A08AE01EB69
:1022F0000A00206204E0D4E9012116F8010B90479E
:10230000BAF1010AF7D22078C00602D52046FEF7BE
:102310004FFE6E4609E016F8010B3E280FD0D4E9B7
:1023200001219047206A401C2062B8F10108F2D2D6
:102330002046FEF753FE09B00320BDE8F08F206A67
:102340002844206203E0D4E90121302090476D1E2B
:10235000EBD3F8E7627E000002FCFFFF10B5436993
:1023600013B1AFF3008001E0FEF75BFE012010BD6A
:10237000127800F124010A7000224A700122EDE770
:1023800011684FF0FF32E9E710B5436913B1AFF3BD
:10239000008001E0FEF7F6FE012010BD128800F17A
:1023A000240182840022C2840122EDE711684FF0EB
:1023B000FF32E9E710B50146C268900703D09006E6
:1023C00007D5886A0AE0FEF7E9F901210160881E55
:1023D00010BD8B69486818440B69C01A91F84830E1
:1023E0001BB191F84910401A10BD1103FCD500280B
:1023F000FADD401E10BD70B516460C46054600F0CD
:1024000083F8036893F80101012806D0FF2C0FD848
:10241000185D68B101202C7070BDD3F807013246F9
:10242000214603F2071303442846BDE870401847CD
:102430004FF0FF3070BD002801D0FFF743BB70475D
:1024400010B500F039F9BDE81040FFF7F4BF10B542
:1024500000F04AF9BDE81040FFF7EDBF10B500F0FD
:102460005DF9BDE81040FFF7E6BF000010B50021A0
:1024700002A000F007F9012010BD000053494750A9
:1024800056464E3A205075726520766972747561B1
:102490006C20666E2063616C6C65640010B5044945
:1024A000FEF7C6FABDE810400148FEF7AABA0000E0
:1024B000240B0020124B694600F580528A421A60B4
:1024C00001D8114670471960704730B50C4D6B4606
:1024D000A3F580532C6822449A420FD89B1A02F528
:1024E000805003EBD37302EB6303984200D9184684
:1024F000C01D20F007020C60101B2A6030BD0000D8
:10250000D00100207047000010B500F005F8001D54
:1025100010BD00BF0966000000487047600C002035
:102520002DE9F0411F46044603260168072A01F4FD
:10253000006004DB08B116A505E016A503E008B1AC
:1025400015A500E015A521F010002060A069C01EAF
:10255000A0610FB1401EA0612046FEF729FD4FB1DA
:10256000D4E9012138469047206A401C2062C01CF3
:10257000206206E0206AFAE7D4E9012115F8010B90
:102580009047761EF8D22046FEF728FDBDE8F08180
:102590004E414E006E616E00494E4600696E660007
:1025A0002DE9F047814616468AB0354878440DC873
:1025B0008DE80D0032487844801C03AC0DC884E8D7
:1025C0000D0041F69B300844372190FBF1F290FB5F
:1025D000F1F5A5F1800501FB12041B3C02D5644214
:1025E000012000E00020DFF898A080460027FA4490
:1025F000AAF1BE0A0EE0E0070AD03246684607EBB1
:10260000470101230AEB810100F041FB8DE807003F
:1026100064107F1C002CEED1194F7F44AE3F19E0AF
:10262000E80715D007EB04100DF1180A90E80E002A
:102630008AE80E00C068F04201D19819089032462D
:10264000012306A903A800F022FB03AB83E80700DF
:102650006D10641C002DE3D14FF001033246694632
:10266000B8F1000F03A802D000F0FCFA01E000F07E
:102670000EFBC9E90001C9F808200AB0BDE8F087DF
:10268000AC7A000070B505460C460A2000E06D1CCF
:10269000FFF710FA35B128780028F8D102E0641C61
:1026A000FFF708FA14B120780028F8D1BDE870408F
:1026B0000A20FFF7FFB9000010B5002102A0FFF7C4
:1026C000E1FF012010BD0000534947414252543AF6
:1026D0002041626E6F726D616C207465726D696EFF
:1026E0006174696F6E00000010B5014602A0FFF72B
:1026F000C9FF012010BD00005349475254524544C0
:102700003A2052656469726563743A2063616E278A
:1027100074206F70656E3A200000000010B501282B
:1027200005D0002103A0FFF7ADFF012010BD09A1D6
:10273000F8E7000053494752544D454D3A204F7534
:1027400074206F662068656170206D656D6F7279A9
:10275000000000003A2048656170206D656D6F7261
:102760007920636F72727570746564005FEA400C63
:1027700008BF91F0000F4FEA8C234FEAC12243EAD1
:1027800051514FEA1C5018BF00F5F0404FEA30009D
:1027900018BF41F000415FEA6C5C00F02980BCF199
:1027A000FF3F08BF40F080407047130C06BF120483
:1027B0004FF0100C4FF0000C130E04BF12020CF17E
:1027C000080C130F04BF12010CF1040C930F04BF8B
:1027D00092000CF1020CD30F04BF52000CF1010C5B
:1027E00011464FF00002A0F11F00A0EB0C00704753
:1027F00011F0004F08BF704731F000413FF4D5AFF2
:102800000B0C06BF09044FF0100C4FF0000C0B0E20
:1028100004BF09020CF1080C0B0F04BF09010CF1F5
:10282000040C8B0F04BF89000CF1020CCB0F04BF0A
:1028300049000CF1010CCCF12003A0EB0C0022FAB2
:1028400003F302FA0CF241EA030100F101007047C0
:1028500020F07F4C80EA030023F07F47ACEB0703B6
:1028600003F57C5300F0004003F1FF032DE980499C
:102870004FEA154B09B44FEA144325EA0B4E24EAFC
:1028800003480FF2042606EB132749083E785FEA57
:10289000320203FB0667C7F5000707FB06F64FEA9F
:1028A00054374FEAD64606F1020607FB066CCCF118
:1028B000005C4FEA1C472CEA074C07FB06F40CFBB4
:1028C00006F504EB15464FEA961634BF00204FF08C
:1028D00000404FEAD13706FB07FC4FEA1C4C0CFBCB
:1028E0000BF7D21B03FB0CF761EB07010CFB0EF798
:1028F000B0EB074072EB17420CFB08F734BFA2EBBA
:102900000742B2EB074261EB17414FEA0C444FEA32
:10291000910706FB07FC4FEA1C4C0CFB0BF7B0EBD6
:10292000C74072EB573203FB0CF734BFA2EBC74230
:10293000B2EBC74261EB57310CFB0EF7B0EBC700AF
:1029400072EB57720CFB08F734BFA2EBC702B2EB75
:10295000C70261EB5771039F4FEA816141EA92110F
:1029600004EBCC044FEAD1374FEA826206FB07FC46
:1029700042EA90124FEA80604FEA1C4C0CFB0BF7C6
:10298000D21B03FB0CF761EB07010CFB0EF7B0EB5E
:10299000074072EB17420CFB08F734BFA2EB07426B
:1029A000B2EB074261EB17414FEA8C554FEA9107B2
:1029B00004EB9C2406FB07FC4FEA1C4C0CFB0BF7BA
:1029C000B0EBC74072EB573203FB0CF734BFA2EBFE
:1029D000C742B2EBC74261EB57310CFB0EF7B0EBCD
:1029E000C70072EB57720CFB08F734BFA2EBC702AB
:1029F000B2EBC70261EB577115EB4C254FEA8161D1
:102A000041EA92114FEA82624FEAD13742EA9012CC
:102A100006FB07FC44F100044FEA80604FEA1C4CBF
:102A20000CFB0BF7D21B03FB0CF761EB07010CFB54
:102A30000EF7B0EB074072EB17420CFB08F734BF00
:102A4000A2EB0742B2EB074261EB174115EB1C15F5
:102A50004FEA813141EA92414FEA823242EA9042A2
:102A60004FEA80304FEA0C7644F1000448EA034311
:102A70004EEA0B484FF0000EB2EB080C71EB030767
:102A800024BF624639464EEB0E0E4FF0000B001885
:102A9000524149414BEB0B0BB2EB080C71EB0307B6
:102AA0007BF1000B24BF624639464EEB0E0E4FF011
:102AB000000B0018524149414BEB0B0BB2EB080CD9
:102AC00071EB03077BF1000B24BF624639464EEBE6
:102AD0000E0E51EA020718BF46F0010616EB0E76FD
:102AE00055F1000254F1000103D5BDE88901BDE8AC
:102AF0000088BDE88901BDE80048B619524141EBA4
:102B00000101A3F10103704780807F7E7D7C7B7A89
:102B10007978777676757473727171706F6E6E6D89
:102B20006C6C6B6A6A69686867666665646463632F
:102B300062616160605F5F5E5E5D5D5C5C5B5B5AB5
:102B40005A59595858575756565555555454535322
:102B500052525251515050504F4F4F4E4E4D4D4D7D
:102B60004C4C4C4B4B4B4A4A4A49494948484847C8
:102B70004747474646464545454444444443434306
:102B80004342424242414141002B9C4630D47700AF
:102B90002BD01CB54FEA370703B44FF010004FF0AD
:102BA0001001BAF1000F06D0BCF1000FDCBF40F0FD
:102BB000080040F008014FF000000FBCBDE81040D5
:102BC0000BF1010BBBF1010F08BF5FEA170722BF32
:102BD00012F1010211F101014FF0004143F1000334
:102BE00000F0004043EA00007047F9D35708D0E7EF
:102BF00046EA064613F1400F4FEA16461FDD13F171
:102C0000200FDFBF16430A46002120335B42BED0AF
:102C1000C3F1200746EA064602FA07F74FEA1646CE
:102C200046EA0706C3F1200722FA03F201FA07F782
:102C300021FA03F14FF0000342EA0702A7E746EA50
:102C4000020646EA06464FEA164646EA0106BCBFB9
:102C500046EA0646360C4FF000034FF000024FF0F4
:102C6000000194E72DE9804C9A46934670B491E8B0
:102C7000380007C831EA400C48BF34EA430C03D59A
:102C8000FFF7E6FDFFF780FFF0BCBDE8008C2DE903
:102C9000804C9A46934670B491E8380007C810F00B
:102CA000804F08BF13F0804F03D100F005F8FFF705
:102CB0006BFFF0BCBDE8008C20F07F4780EA03008A
:102CC00023F07F4C07EB0C03A3F57C5300F000408E
:102CD000A3F1FE0392F0000F00F0B38095F0000F17
:102CE00000F077802DE901494FEA11404FEA144680
:102CF00021EA004800FB06FC24EA064708FB06F62A
:102D000007FB08F800FB07F718EB06484CEB164CDE
:102D10004FEA124B18EB07484FEA15464CEB1740A9
:102D200022EA0B4E0BFB06FC25EA06470EFB06F6D5
:102D300007FB0EFE0BFB07F71EEB064E4CEB164C8B
:102D40004FF000061EEB074E4CEB174B18EB0B0831
:102D500040F1000018EB0E0B58EB000840F10000AA
:102D60008F1A4FF000013CBFC943661B14BFB5EB7F
:102D7000040C00213CBFC943F61B4FEA17444EEA3E
:102D80008E0E27EA04454FEA1C4704FB07622CEA33
:102D9000074C05FB07F70CFB05F604FB0CFC16EBD8
:102DA000074642EB174216EB0C4642EB1C421BEB6C
:102DB000060658EB0202414146EA9E0601D5BDE8EF
:102DC0000189B619524141EB0101A3F10103BDE8AC
:102DD00001894FEA14454FEA114724EA054621EAE2
:102DE000074C05FB07F406FB07F70CFB06F105FB98
:102DF0000CFC11EB074144EB17444FEA124711EB6F
:102E00000C4144EB1C4422EA074C05FB07F206FB8D
:102E100007F70CFB06F605FB0CFC16EB074642EB2E
:102E2000174216EB0C4642EB1C456A1854F10001A0
:102E300048BF7047B619524141EB0101A3F10103AC
:102E4000704795F0000F37D04FEA11424FEA144710
:102E500021EA024624EA074C02FB07F106FB07F7CA
:102E60000CFB06F402FB0CFC14EB074441EB17418E
:102E70004FEA154714EB0C4441EB1C4125EA074C83
:102E800002FB07F506FB07F70CFB06F602FB0CFC42
:102E900016EB074645EB174516EB0C4645EB1C4277
:102EA000121951F1000148BF7047B619524141EB68
:102EB0000101A3F1010370474FEA14454FEA11479E
:102EC00024EA054621EA074C05FB07F106FB07F754
:102ED0000CFB06F24FF0000605FB0CFC12EB074260
:102EE00041EB174112EB0C4251EB1C4148BF7047BC
:102EF000921841EB0101A3F10103704710B504F0F2
:102F000067FCBDE8104004F0EBB9002101604160AE
:102F10008160C1607047000010B50246022905D3E8
:102F200040F26912054906A0FDF758FE52F821103B
:102F3000002011F0800F18BF802010BDFCA50000FC
:102F40006368616E6E656C47726F7570203C2041DE
:102F500044435F5343315F434F554E5400000000DC
:102F600010B568B100210170032242700123837003
:102F7000C2700371042242718171C171017210BD6E
:102F80008D22024902A0FDF729FE0000FCA50000E9
:102F90004E554C4C20213D20636F6E6669670000E2
:102FA00010B500291CBF0022314B07D053F8224036
:102FB000844208D0521C022AF8D306E04D222D4943
:102FC0002DA0FDF70BFE022A04D3462229492EA08C
:102FD000FDF704FE364B53F82220364B03EB124329
:102FE000D3F800C0012404FA02F24CEA02021A608B
:102FF0004A780B794FF00C0C02F003020CEA8303C1
:103000001A434B79042B18BF42F01002CB784FF0D3
:10301000600C0CEA43131A43CB79002B18BF42F023
:1030200080028260C2684B7922F00F02042B1CBF21
:1030300003F003031A438B79002B18BF42F00402FC
:103040008B78002B18BF42F00802C260026A0B782E
:1030500022F0030203F003031A430262097A0029F3
:10306000416A14BF41F0080121F00801416210BD1E
:103070003C940000FCA500004E554C4C20213D2006
:10308000636F6E6669670000696E7374616E636575
:10309000203C2046534C5F464541545552455F53B2
:1030A0004F435F41444331365F434F554E54000018
:1030B000449400000070044010B5022905D340F28A
:1030C00053120E490EA0FDF789FD8AB1137892F8CC
:1030D00005C003F01F03BCF1000F18BF43F020032D
:1030E0001279002A18BF43F0400340F8213010BD88
:1030F0004FF4AA7201490AA0FDF770FDFCA500007B
:103100006368616E6E656C47726F7570203C20411C
:1031100044435F5343315F434F554E54000000001A
:103120004E554C4C20213D20636F6E666967000050
:103130000029C1680CBF21F0100141F01001C160ED
:103140007047426A042922F0070204D001F003010B
:10315000114341F004024262704700000F4910B56C
:103160004FF0927048640E4C04F1140000F0C2FA63
:103170000D490C4804F1080208600021084600F0DF
:1031800039F800221146022000F014FB04F10C0073
:1031900000F0A2FB06490548086010BD008004400D
:1031A000CC94000080F0FA02BC000020000E27073B
:1031B00074010020074810B5016829B1054A064886
:1031C0005268BDE81040104740F21F52034904A066
:1031D000FDF704FDE0000020004002404CA8000084
:1031E000735F666C657863616E48616E646C655B85
:1031F000305D000070B514000D4611D000F0B8FA33
:103200002146284600F01CFB0848017821F0C00147
:1032100001708179C1F381010329FAD1002070BDC9
:1032200040F25D62024903A0FDF7D8FC0040064071
:1032300090A60000636F6E666967000010B5A0B1CC
:10324000417801F01F020C490A7183784A7963F3CF
:1032500004024A710A790078104340F04000087176
:10326000887910F0400FFBD010BD4FF45272034923
:1032700003A0FDF7B3FC00000040064090A600004C
:10328000636F6E6669670000154810B50068C0F38B
:103290008141144839B1022918D0032904BF4FF4E1
:1032A0007A7010BD0AE01049097811F0800F05D03E
:1032B000806828B1B0F5004F08BF10BD002010BDD8
:1032C00040F2651209490A48FDF788FCC0680028E9
:1032D00018BF10BD40F27912044906A0FDF77EFC2C
:1032E00000700440B40000200050064090A600008A
:1032F0009C350000675F7874616C3332467265718B
:1033000000000000234A10B5907910F0100F2248F9
:103310001CBF006810BD117B11F0030106D001290C
:103320000BD0022908BF1D4809D024E0806830B9BD
:10333000D4221B491B48FDF751FCC068B0B111787D
:103340005378C1F3C201C840127BC3F3011302F0EA
:10335000030203B112B1022A18BF10BD08290AD214
:10336000DFE801F00B0B0B0B0B0B0D12D9220C49F4
:103370000D48FDF733FC002010BD400910BD0B497E
:10338000A1FB0010000910BD0949A1FB0010C008F5
:1033900010BD000000400640B4000020006CDC02BC
:1033A00090A600009C350000F4320000CDCCCCCCBF
:1033B000ABAAAAAA10B5142852D2DFE800F00A0A74
:1033C000121C26A430486AA4A47B879BB9A4A4A499
:1033D000BDBF00F0E9F85B49496C012202EB1171B5
:1033E0001AE000F0E1F85749496CC1F30361491C48
:1033F000B0FBF1F010BD00F0D7F85249496CC1F3B1
:103400000351491CB0FBF1F010BD00F0CDF84D495F
:10341000496CC1F30341491CB0FBF1F010BD4948B0
:103420004068C0F3014020B101286ED003286DD060
:1034300069E0454C607810F0020F04BFA07910F0ED
:10344000200F60D1FFF75EFF002865D110BD3F4817
:103450000068C0F3814020B102280FD003286DD04E
:1034600051E03B48007810F0800F4CD0394880681C
:10347000D0B1B0F5004F08BF10BD44E03548C0687A
:10348000002818BF10BD40F2791233493348FDF7C8
:10349000A5FB2F48007810F0800008BF10BD2D4814
:1034A0008068002818BF10BD40F265122A492C48D8
:1034B000FDF794FBFFF726FF040024D000F074F81A
:1034C000B4EBD00F9CBF204610BD1CE01E48017815
:1034D00011F0020F17D0817911F0010F02BF1D48C2
:1034E000006810BD007A1B49C0F34200496821FA08
:1034F00000F010BD144C607810F0020F04BFA079EA
:1035000010F0200F03D0002010BD11E014E0FFF7F1
:10351000F9FE002808BF10BDE178E278C1F341113F
:10352000104BD20903EB810131F81210484310BD52
:10353000BDE8104000F09AB80B4810BD4FF47A7007
:1035400010BD0000008004400040064000700440B0
:1035500000500640B400002090A60000F4320000A5
:103560009C3500008C940000006CDC020848007858
:1035700010F0800008BF704706488068002818BF18
:10358000704710B540F26512034904A0FDF726FB11
:1035900000500640B400002090A60000675F7874D9
:1035A000616C30467265710010B5294CA079C0F38A
:1035B000810151B12748012920D002292AD00329AD
:1035C00032D1BDE8104000F051B8607810F0020F21
:1035D00004BFA07910F0200F26D1FFF793FE00283A
:1035E00008BF10BDE178E278C1F341111A4BD2094E
:1035F00003EB810131F81210484310BDA17911F09D
:10360000010F04BF006810BD217A4068C1F3420178
:10361000C84010BD217B11F0030107D001290ED055
:10362000022904BF0D4810BD002010BD806800288D
:1036300018BF10BDD4220A490A48FDF7CFFAC06866
:10364000002818BF10BDD92205490748FDF7C6FA62
:1036500000400640B40000208C940000006CDC02A6
:1036600090A600009C350000F4320000184910B507
:10367000887910F0400008BF10BD087B10F00302ED
:1036800014480BD0012A10D0022A08BF12480ED0CD
:1036900040F27E22114912A0FDF7A0FA806830B9ED
:1036A000D4220E491148FDF799FAC06858B10A7939
:1036B000497902F01F02521CB0FBF2F001F01F0129
:1036C0001831484310BDD92204490948FDF786FA4C
:1036D00000400640B4000020006CDC0290A6000010
:1036E0006D6367706C6C30636C6B00009C35000020
:1036F000F4320000016849F69702914298BF002118
:1037000004D9184A914294BF01210221164A037933
:1037100092F800C02CF00F0C4CEA030313701378DE
:1037200090F806C023F0A0034CEA0303137043791A
:1037300021F0704143EA011101F03C030B4991F87B
:1037400001C02CF03C0C43EA0C034B70407900287C
:103750001ABF107810F0800F7047887910F0020FB0
:10376000FBD0704700127A0000500640004006402F
:103770000F490A7B02F00302824214BF0122002299
:103780000B7B60F301030B7338B9487810F0040F1A
:1037900003D0887910F0020FFBD032B100BF00BF18
:1037A00040F2D95000BF401EFCD2002070470000FC
:1037B00000400640214B30B493F806C0CCF381049E
:1037C00093F806C01D7A0CF0010CC5F34205AA421D
:1037D0001FD0BCF1000F12D0012C04D093F800C010
:1037E0001CF0020F0BD093F801C02CF0010C83F8F1
:1037F00001C000BF93F806C01CF0010FFAD193F886
:1038000008C052002CF02F0CC2F342024CEA4202D4
:103810001A725A7861F300025A701A7860F3010242
:103820001A70012C02D010F0020F04D0987900F029
:1038300001008842FAD130BC0020704700400640A9
:1038400010B5002935D02148427822F0020242709A
:10385000027822F0C40242F080020270827902F003
:103860001C02082AFAD1427922F040024271827980
:1038700012F0200FFBD111B34A7802F01F0202713F
:103880008B78427963F3040242710279097811431B
:1038900041F040010171817911F0400FFBD0417975
:1038A00041F040014171817911F0200FFBD00020DF
:1038B00010BD40F2BE5206490648FDF78FF94FF49D
:1038C000527203490348FDF789F9000000400640A1
:1038D00090A6000080320000074942684A640278DE
:1038E0004B6862F311434B60044940780A6860F307
:1038F00093420A607047000000800440007004405A
:103900000148006800F05CB8F40400200148806AB7
:1039100000F056B8F40400200148C06A00F050B826
:10392000F40400200148006B00F04AB8F4040020C1
:103930000148406B00F044B8F40400200148806B5B
:1039400000F03EB8F40400200148C06B00F038B825
:10395000F40400200148406800F032B8F40400206C
:103960000148806800F02CB8F40400200148C068C9
:1039700000F026B8F40400200148006900F020B8E7
:10398000F40400200148406900F01AB8F404002053
:103990000148806900F014B8F40400200148C069AF
:1039A00000F00EB8F40400200148006A00F008B8E6
:1039B000F40400200148406A00F002B8F40400203A
:1039C00010B528B18268017CD177C36833B110E0AB
:1039D00040F23A32254926A0FDF700F9D0F800C0A0
:1039E000BCF1000F05D041680023BDE81040012262
:1039F0006047017C41F2180C82680CEB411C52F8C4
:103A00000CC041F21C0404EB4111515AC1F3C01225
:103A1000ACEB0301490972B190F91130C9B28B4284
:103A20000FD190F9133090F914C0634514BF0023EF
:103A300090F913300CE0002908BF90F91410491ECA
:103A4000EAE790F91130CB1A44BF90F914C06344EF
:103A50004174C17CC91AC174D0F800C0BCF1000F18
:103A600008BF10BD4168BDE810406047B8A700001E
:103A700068616E646C6520213D204E554C4C000001
:103A80000248024A0168D26801481047D00000206D
:103A900000000C400248024A016892680148104741
:103AA000D000002000000C400248024A0168526821
:103AB00001481047D000002000000C4010B578B13C
:103AC0000021017041708022C0E90121017341731E
:103AD000012282730161416101764176817610BDD8
:103AE00040F22F12014902A0FDF778F8E4A8000087
:103AF000636F6E66696700002DE9F05FC1B10A79F6
:103B000012F0F00F04BF0120BDE8F09F4FF0040C4D
:103B10009D4C002254F8225085421CBF521C624525
:103B2000F8D3624509D36122984999A0FDF756F868
:103B3000DE2296499DA0FDF751F89E4B53F822C016
:103B40009D4A02EB1C431C68012202FA0CFC44EA69
:103B50000C0CC3F800C00B7B4FF0600C0CEA431355
:103B600043F0050343654D68836D466E43F0080CD2
:103B7000DFF84882DFF848B2DFF848E2A0F180437E
:103B8000B3F5603309D0404514BF5845022305D032
:103B9000704518BF4FF0FF3300D1082303EBD373F8
:103BA0005C104FF005094FF00D0A002C19DD0023C1
:103BB00014F0010F1CBF46F020060123C4F3470494
:103BC0007CB100BF09EBC30702FA07F73E430AEBDB
:103BD000C30702FA07F79B1C3E43641E14F0FF0460
:103BE000F0D14666D0F88C3015F0800F43F0B40366
:103BF00018BF43F4F85315F0700F10D043F4F813C6
:103C000015F0100F18BF4CF0100C15F0200F18BF56
:103C10004CF0200C15F0400F18BF4CF0400CC0F8D1
:103C200058C0C0F88C308D68D0F88C3043F0040355
:103C3000C0F88C30D0F864C0634FB84209D040451A
:103C400014BF5845022305D0704518BF4FF0FF330D
:103C500000D1082303EBD3735B1028D0B84209D0FE
:103C6000404514BF5845022305D0704518BF4FF09A
:103C7000FF3300D1082303EBD3735C1017D000236C
:103C800014F0010F1CBF4CF0200C012364080ED06F
:103C900009EBC30602FA06F646EA0C0C0AEBC30669
:103CA00002FA06F69B1C46EA0C0C641EF0D1C0F822
:103CB00064C0D0F89830B8420AD0404514BF584587
:103CC0004FF0020C06D0704518BF4FF0FF3C01D1F9
:103CD0004FF0080C02FA0CFCACF1010C23EA0C03C7
:103CE000B8420AD0404514BF58454FF0020C06D0E8
:103CF000704518BF4FF0FF3C01D14FF0080C02FA9D
:103D00000CF2521E2A401A43C0F89820826D15F416
:103D1000807F14BF42F0020222F0020215F4007FFD
:103D200014BF42F0010222F0010282650A7802F01B
:103D3000070202604B7891F81AC0C0224FF4007459
:103D400002EA831304EA4C2C43EA0C03C0F88430E3
:103D50000B7EC3654B7E03674B69C3668B7B02EAB0
:103D600083120B7C03F03F031A438266C26F497BC8
:103D70004FF4706322F4706203EA01211143C167BA
:103D80000020BDE8F09F0000EC940000E4A80000D3
:103D9000696E7374616E6365203C2066746D417258
:103DA000726179436F756E7400000000636F6E6618
:103DB00069670000FC94000000700440009003401C
:103DC00000A0034000900B40008003402DE9F84F15
:103DD000DDE90A5C91B1BCF1000F15D0D5B1FAB1A3
:103DE000046804F00706012404FA06F6BCFBF6FC9E
:103DF000E3B1012B23D0022B18D080E04FF4A9723D
:103E00006C496DA0FCF7EAFE40F2531269496DA0BF
:103E1000FCF7E4FE4FF4AA7266496DA0FCF7DEFEE3
:103E200040F2551263496DA0FCF7D8FE066826F0F3
:103E300020060660BCFBF5FCACF1010C06E0066850
:103E400046F0200606606D00BCFBF5FCBCF5803F2B
:103E500055D2C0F808C00025002A7CD9DFF888A117
:103E6000DFF888B1624F0CF101068C78642C46D8DB
:103E7000002B18BF012B13D0504532D058451ABF24
:103E8000A0F18048B8F568384FF002092BD0A0F1B6
:103E90008048B8F5392818BF4FF0FF3921D022E00B
:103EA0000C7800EBC404D4F80C8091F8019028F051
:103EB0003C0848EA890848F02008C4F80C808C784F
:103EC00044B104FB0CF4A7FB0484C4F34F14644511
:103ED00028BFB4B291F8008000EBC808C8F81040C1
:103EE0005AE04FF0080991F8008009EBD979B8EB56
:103EF000690F04DA91F80390B9F1640F02D9012037
:103F0000BDE8F88FB9F1000F05D009FB0CF9A7FB4C
:103F100009E9C9F34F19E4B304FB0CF4A7FB04E46B
:103F2000C4F34F140094644524BFB4B2009400EB72
:103F30000814D4F80C8091F801E028F03C0848EA15
:103F40008E08C4F80C800C7800EB0418D8F81440E4
:103F500024F03C0400E025E091F801E044EA8E04FE
:103F6000C8F81440D0F864800C784FEAC40E0124DD
:103F700004FA0EF448EA040444660C7800EB0414D6
:103F8000C4F81090009C91F800804C4400EB081895
:103F900000E00AE0C8F818406C1CE5B2091D954223
:103FA000FFF463AF0020BDE8F88F0024A146009421
:103FB000BDE70000E4A8000063686E6C50617261A8
:103FC0006D730000737263436C6F636B5F487A00BC
:103FD00070776D467265715F487A00006E756D4F3F
:103FE0006643686E6C7300000080034000900340DD
:103FF0001F85EB5110B508480849C278096812F0CE
:10400000100F074A05BF837813F0200F126852681B
:104010009047BFF34F8F10BD00600640340500206D
:10402000E800002010B508480849C278496812F035
:10403000100F074A05BF837813F0200F12685268EB
:104040009047BFF34F8F10BD00700640340500202D
:10405000E800002010B508480849C278896812F0C5
:10406000100F074A05BF837813F0200F12685268BB
:104070009047BFF34F8F10BD00600E403405002005
:10408000E8000020074810B5416829B1074A0648F2
:104090005268BDE8104010474FF48462044905A0FF
:1040A000FCF79CFDF800002000F00240F00000202A
:1040B0000CAA0000735F73616948616E646C655B94
:1040C000305D5B315D000000074810B5016829B123
:1040D000074A06481268BDE81040104740F21A42ED
:1040E000044905A0FCF77AFDF800002000F002402A
:1040F000F00000200CAA0000735F73616948616ED4
:10410000646C655B305D5B305D00000008B50421C8
:10411000684602F055FE08BD10B541B1144A126858
:10412000824209D04822134913A0FCF757FD4F22C1
:1041300010491BA0FCF752FD1B4A1C4B126803EBF5
:104140001243D3F800C0012404FA02F24CEA02023E
:104150001A60026822F002020260097800290168F0
:1041600014BF21F0010141F00101016010BD000008
:104170000C95000078A90000696E7374616E636528
:10418000203C2046534C5F464541545552455F53B1
:104190004F435F5049545F434F554E540000000059
:1041A000636F6E6669670000109500000070044040
:1041B000074810B5016829B1054A06485268BDE8AC
:1041C000104010474FF4A962034904A0FCF706FD14
:1041D0000001002000100B40A0AA0000735F736470
:1041E000686348616E646C655B305D000B4810B5B8
:1041F000016841B10A480268D30F0A4A09D05268DF
:10420000BDE81040104740F26162074907A0FCF783
:10421000E5FC9268BDE8104010470000E80400206B
:1042200000C00240C400002024A70000675F647340
:10423000706948616E646C655B305D000B4810B559
:10424000416841B10A480268D30F0A4A09D052684E
:10425000BDE81040104740F26962074907A0FCF72B
:10426000BDFC9268BDE8104010470000E804002043
:1042700000D00240C400002024A70000675F6473E0
:10428000706948616E646C655B315D000B4810B508
:10429000816841B10A480268D30F0A4A09D05268BE
:1042A000BDE81040104740F27162074907A0FCF7D3
:1042B00095FC9268BDE8104010470000E80400201B
:1042C00000C00A40C400002024A70000675F647398
:1042D000706948616E646C655B325D000748016817
:1042E00041F47001016006484CF22051C1814DF645
:1042F0002811C1814FF4E9710180704788ED00E019
:10430000002005400248044A01681268014810472D
:104310004005002000A00640080100200248044A91
:1043200041681268014810474005002000B006406F
:10433000080100200248044A8168126801481047B9
:104340004005002000C00640080100200248044A41
:10435000C1681268014810474005002000D006409F
:10436000080100200248044A016912680148104708
:104370004005002000A00E40080100200248044A29
:1043800041691268014810474005002000B00E4006
:1043900008010020427922F0C00242EA1122427153
:1043A0000A0E827411F0170F1CBF0279C27911F046
:1043B000080F05D00279C279427C42F04002427473
:1043C0000279437942EA0322037B807C42EA03427A
:1043D00042EA0060084018BF40F2EE30704700002B
:1043E000084A114002788A430270C27822EA1122F8
:1043F000C270827922EA11428271427C22EA116102
:1044000041747047C0F00F07084A114002780A4310
:104410000270C27842EA1122C270827942EA1142E5
:104420008271427C42EA116141747047C0F00F070B
:1044300010B558B14FF4E1310160002101714171B3
:1044400081710122C2710172417210BD40F25D1290
:10445000014902A0FCF7C2FB34AB0000636F6E663B
:1044600069670000C1788279090241EA0241027855
:10447000407C114341EA0060014908407047000058
:10448000C0F00F0710B502460621094B002000BFFF
:1044900053F820C094451CBF401C8842F8D3884282
:1044A00038BF10BDA922034903A0FCF797FB000009
:1044B0001C95000034AB0000696E7374616E636517
:1044C000203C20756172744172726179436F756E20
:1044D000740000000179427941EA0221027B807C6C
:1044E00041EA024141EA0060704700002DE9F047CF
:1044F000002926D0D1F800C0BCF1000F26D0654DB0
:10450000654E664F664B674CDFF89C81A84214BF2E
:10451000B0424FF008090BD0B84218BF984205D0FE
:10452000A0421CBF40454FF0FF3901D14FF00109B7
:1045300091F806A0D1450EDAD7225C495CA0FCF7C1
:104540004DFBD42259496AA0FCF748FBD5225749B4
:1045500069A0FCF743FBA84214BFB04208230AD06D
:10456000B84218BF984205D0A0421CBF40454FF04A
:10457000FF3300D10123CC79A34204DAD8224B497E
:1045800063A0FCF72BFB4FEA0C13B2FBF3F31B0405
:104590001B0C08BF01235200B2FBFCF45D4204EB8C
:1045A0004514A7B207EB4314B2FBF4F2944534BFB1
:1045B000A2EB0C02ACEB0202654CA4FB0C4C4FEAE4
:1045C0005C1C0CEB4C0C94453CBF40F2F530BDE854
:1045D000F0874FF0060C5F4C002200BF54F82260B9
:1045E00086421CBF521C6245F8D3624504D3A922FF
:1045F0002E495948FCF7F2FADFF860C15CF8222036
:10460000DFF85CC10CEB124CDCF80040012505FA28
:1046100002F22243CCF80020C27822F00C02C270D1
:10462000027822F01F0242EA132202704370827A5B
:1046300067F30402827282780B7922F01302002B56
:104640001CBF42F010021A43827002784B7922F0AC
:1046500020025B01C3F3401342EA431202708A79DD
:10466000C274CA794275027C42F088020274427CAC
:1046700042F0C0024274C2780B7A002B18BF42F09D
:104680000802497A002918BF42F00402C2700020D3
:10469000BDE8F08700A0064000B0064000C006401C
:1046A00000D0064000A00E4000B00E4034AB000029
:1046B00046534C5F464541545552455F554152540F
:1046C0005F4649464F5F53495A456E28626173659C
:1046D00029203E3D20636F6E6669672D3E747846E3
:1046E00069666F57617465726D61726B00000000DE
:1046F000636F6E6669670000636F6E6669672D3E63
:1047000062617564526174655F42707300000000FD
:1047100046534C5F464541545552455F55415254AE
:104720005F4649464F5F53495A456E28626173653B
:1047300029203E3D20636F6E6669672D3E72784684
:1047400069666F57617465726D61726B000000007D
:104750001F85EB511C950000B84400003495000003
:104760000070044010B5002934D00B01B2FBF3F304
:104770001B041B0C08BF01235200B2FBF1FC5C427E
:104780000CEB441C1FFA8CFC0CEB4314B2FBF4F250
:104790008A428CBF521A8A1A114CA4FB0141490962
:1047A00001EB410191429CBF40F2F53010BDC17850
:1047B000C27822F00C02C270027822F01F0242EA94
:1047C000132202704370827A6CF304028272C17009
:1047D000002010BD4FF4B772024903A0FCF7FEF9A8
:1047E0001F85EB5134AB00006261756452617465E2
:1047F0005F427073000000002DE9F04105460E464F
:104800001446C4EB84173146284601F0EDF8B6EEA5
:10481000000A284601F0CEF8384604F047F9BDE812
:10482000F08110B504460021204601F0DDF810BDEE
:1048300070B5264C2068002804BF201D2060251D6F
:10484000A84204D05E222249224802F0EFFE22480C
:1048500022680324C168002918BF042422D000BFA5
:1048600050F8241031B100EB84014968C1B1A41C97
:10487000102CF5DB102C15DBFBF790FF18210160E5
:1048800012480168002904BF011D0160A94204D03B
:104890005E220F490F4802F0C9FE4FF0FF3070BD95
:1048A000641CE7E74FF0FF3140F824100748002A66
:1048B00004BF011D01600068A84204D05E220449C3
:1048C000044802F0B3FE204670BD00002001002025
:1048D000F4A30000E0A300002801002070B5044606
:1048E000002506E00A2004F0F3F8034800F011FA6E
:1048F0006D1CA542F6DB70BD400300201028A4BF4C
:10490000002070472DE9F0411F4E044656F8240060
:10491000B0F1FF3F18BFBDE8F081032CA8BFBDE890
:10492000F081204600F0B6FF50BB204600F0B7FFF4
:1049300030BB1648007810F0010F20D1134801F069
:104940008FFDE0B1124D134841F211012860124869
:104950004A1E4FF416570068002818BF284607D192
:104960000E4803F069FB39460C4803F04DFB28461E
:104970000B4A0C4901F060FD044801F09FFD04481A
:1049800046F82400BDE8F081280100201001002035
:104990001401002010A100006C0100201409002067
:1049A00000000000114D00002DE9FC4104460D46B9
:1049B00016461F46DDF82080F019401E00B2CDE9F2
:1049C000000820682B4632462946D0F860C02046B1
:1049D000E047BDE8FC8170B504460D46E9B22068A9
:1049E000826F2046904770BD2DE9FF4F83B0064689
:1049F0000F469046DDF840B0129CB6F91C00B84254
:104A00000FDDB6F91E0040450BDD062000FB0470EB
:104A1000401E002805D4082000FB0480401E00280A
:104A200002D507B0BDE8F08F002559E0052D02D171
:104A30004FF0000A06E0069800EB800028442A495F
:104A400011F800A04FF0000945E00AF00100E0B1C4
:104A5000012C0BD108EB090002B2781901B23068C1
:104A60005B46D0F858C03046E0472EE009FB048092
:104A700002B205FB047001B2CDE9004B3068234659
:104A8000D0F870C03046E0471FE0119858451CD060
:104A9000012C0BD108EB090002B2781901B2306881
:104AA000D0F858C03046119BE0470EE01198CDE990
:104AB000004009FB048002B205FB047001B23068BB
:104AC0002346D0F870C03046E0474FEA6A0A09F141
:104AD00001004FFA80F9B9F1080FB6DB681C45B246
:104AE000062DA3DB00BF9CE7489A00002DE9FC5F80
:104AF00082460C4615461E460C9F791B002901DB99
:104B00000A4600E04A42301B002801DB034600E071
:104B100043429A4201DD012200E000220192019805
:104B200030B120462C46054630463E46074600BF7B
:104B3000B44206DD20463446064628463D46074632
:104B400000BF301B0FFA80F8781B002801DB0146FC
:104B500000E0414209B20091404608EBD071491093
:104B60000FFA81F9BD4202DA4FF0010B01E04FF07C
:104B7000FF3B25E0019848B1DAF80000D0F858C0B2
:104B80002246294650460D9BE04708E0DAF800002F
:104B9000D0F858C02A46214650460D9BE047009861
:104BA000A9EB00000FFA80F9B9F1000F06DA05EB66
:104BB0000B0005B209EB08000FFA80F9601C04B283
:104BC000B442D7DDBDE8FC9F2DE9F84F06460C4600
:104BD00090461F46DDE90A9A25460BE0CDF800A075
:104BE00030684B4642462946D0F864C03046E0471C
:104BF000681C05B2E019A842F0DCBDE8F88F3EB5AC
:104C000004460D460A2D09D1618C94F8280001EB69
:104C1000C00000B260840020208434E00D2D02D159
:104C2000002020842FE094F82800E18CA28CCDE9AC
:104C300000210290B4F92220B4F920102B4620461E
:104C4000FFF7D2FE208C94F8281001EB410100EB15
:104C5000410000B2208494F82A00A0B1B4F91C00ED
:104C600094F8281001EB4101A0EB4100B4F92010A9
:104C7000884208DA618C94F8280001EBC00000B289
:104C800060840020208401203EBD000070B50446F1
:104C90000D4616460021204600F036FF04460D481A
:104CA00020608430606025836683A583E6830020CE
:104CB000208460840120A0840020E084012084F806
:104CC0002800002084F82900012084F82A002046CA
:104CD00070BD00007CA000006FF01C0070476FF0FA
:104CE000150070470020704770B515000E464FF054
:104CF000000406D0315D044803F058FB641CA54253
:104D0000F8D8284670BD0000140900200120704723
:104D1000704770B50446012104F1DC0000F0CBFAC5
:104D2000012104F1D80000F0C6FA94F82101401CDA
:104D3000C0B284F82101042826DB002084F8210178
:104D400094F82001401CC0B284F8200194F834107B
:104D5000884223DB002084F8200194F836000128E3
:104D600007D114F8350FC0F10100207000206070E9
:104D7000353C94F83500C0F1010104F12C0050F8E5
:104D80002100C4F8240109E094F82101012805D18B
:104D900094F8201104F1840000F084FD002104F156
:104DA000DC0000F088FA002104F1D80000F083FA5A
:104DB00094F8210100281EDD002512E0D4F824011A
:104DC000405D811004F1380000F06CFD012104F118
:104DD000D40000F070FA002104F1D40000F06BFA66
:104DE0006D1C202DEADBB4F91810D4F82401084416
:104DF000C4F8240128E0002524E005F12000D4F8BF
:104E00002421105C0C2202EA8000D4F82421525D97
:104E100040EA021005F14002D4F824319A5C02F015
:104E2000030240EA020104F1380000F03BFD0121D9
:104E300004F1D40000F03FFA002104F1D40000F0A6
:104E40003AFA6D1C202DD8DB70BD2DE9F0410446E7
:104E50000E46154684F8346094F83400400100EBA7
:104E60004007012D01D1780000E0384680464046D9
:104E7000FBF798FCE06208B9BDE8F0814146E06AC2
:104E8000FBF796FF012D02D1E06A384400E0E06AAA
:104E900020630320343484F8ED002078401E84F829
:104EA000EC000020A0706070343C00BFE4E730B537
:104EB00004464807000C01F0060540EA852002F090
:104EC000070540EA052002F0070540EA451003F017
:104ED000070540EA8500C3F34105284330BD2DE9AD
:104EE000F04F04460D469C46002D09DBB4F91C909A
:104EF000A94505DD002A03DBB4F91E90914501DCCC
:104F0000BDE8F08F94F82990B9F1010F06D0B9F1FE
:104F1000020F0FD0B9F1030F29D11CE0A9461546A5
:104F20004A46B4F81890A9F10109A9EB05090FFA4E
:104F300089F51CE0B4F81890A9F10109A9EB05095D
:104F40000FFA89F5B4F81A90A9F10109A9EB020941
:104F50000FFA89F20BE0A94615464A46B4F81A90B2
:104F6000A9F10109A9EB02090FFA89F200BF00BFFC
:104F70004FEA2C33CCF3C316CCF3430702214FF096
:104F8000100894F8349091456FDD94F835A004F141
:104F90002C0959F82AA0B4F9189009FB02F909EB79
:104FA0004909A9440AEB090090F8409029F0030947
:104FB00080F8409003F00109B9F1000F05D090F896
:104FC000409049F0010980F8409006F00109B9F1DC
:104FD000000F05D090F8409049F0020980F8409009
:104FE00007F00109B9F1000F06D090F8209049F0C0
:104FF000010980F8209005E090F8209029F001093F
:1050000080F820902DE090F8009029F01C0980F89D
:10501000009003EA0109B9F1000F05D090F8009063
:1050200049F0040980F8009006EA0109B9F1000F7F
:1050300005D090F8009049F0080980F8009007EA40
:105040000109B9F1000F05D090F8009049F010095E
:1050500080F80090B4F9189048444FEA41694FEA4B
:1050600019614145CFDB73E0FFE794F83490A2EB80
:105070000909B4F918A009FB0AF909EB490909EB78
:10508000050A94F835B004F12C0959F82B900AEB75
:10509000090090F8009029F0030980F8009003F0CF
:1050A0000109B9F1000F06D090F8209049F00209EB
:1050B00080F8209005E090F8209029F0020980F80F
:1050C000209006F00109B9F1000F05D090F800908A
:1050D00049F0010980F8009007F00109B9F1000FCB
:1050E00005D090F8009049F0020980F800902DE07A
:1050F00090F8009029F0E00980F8009003EA010997
:10510000B9F1000F05D090F8009049F0200980F81F
:10511000009006EA0109B9F1000F05D090F800905F
:1051200049F0400980F8009007EA0109B9F1000F41
:1051300005D090F8009049F0800980F80090B4F90B
:10514000189048444FEA41694FEA19614145CFDB65
:1051500000BFD5E62DE9F04F8DB004460D4616464A
:105160001F46DDE918ABDDE9168910222021204613
:10517000FFF78CFD044630482060843060604FF0BB
:10518000FF3009900A900B900C90059006900790C4
:105190000890CDE902A03B4632462946CDE9008978
:1051A000049004F1380000F099FBA0F138044FF0AE
:1051B000FF3009900A900B900C9005900690079094
:1051C000089001900290039004900090594604F1D9
:1051D0008400DDE91A2300F081FBA0F184044FF084
:1051E000FF3104F1D00000F05BF8A0F1D00404F12D
:1051F000D4001C9900F054F8A0F1D40404F1D800B4
:105200001D9900F04DF8A0F1D80404F1DC001E99BE
:1052100000F046F8A0F1DC0404F1E00000F048FDE5
:10522000A0F1E004082120461F9AFFF70EFE204659
:105230000DB0BDE8F08F000060A1000070B504461D
:1052400015482060843004F1E00560601348286050
:10525000284600F0B6FC05F1280003F0EDFCA0F1B3
:105260002805284600BF0546284600F0D3F9054624
:1052700000BFA5F1E004A5F15C0000F087FBA0F100
:1052800084044C3800F082FBA0F1380425462846FF
:1052900000F06EFC044670BD60A1000098A3000001
:1052A00070B504460D46002020602946204601F0D6
:1052B0009BFD204670BD70B504460D4600BF2946D3
:1052C000204601F0A3FE00BF204670BD70B5044625
:1052D000006801220021036920469847050048BF65
:1052E00070BD2068022200210369204698470646C7
:1052F000206800222946036920469847304670BD41
:105300000020704710B50C464C3003F04FF8204693
:1053100010BD00EB0110D0F81411002908BF704730
:10532000096800F58470084770B504464C3002F0F7
:1053300025FF054600F47C51A06C0026002818BF0C
:10534000002905D004F13C02036801261046984765
:10535000A26B05F0FC01002A18BF002904D01268D6
:1053600004F12C00904702E0002E08BF70BDBDE89C
:10537000704003F06FB87047704700002DE9F047A8
:10538000904604463E4A84B03C481E46894620600A
:10539000D2E902130022A160E3603A49216148F298
:1053A00007016161E261A46104F1080121623649EB
:1053B0006162BFF36F8FBFF34F8F924684F828A0CE
:1053C00084F829A0C4F82CA0C4F830A0C4F834A0F4
:1053D000C4F838A0C4F83CA0C4F840A0C4F844A065
:1053E000BC2104F14C00C4F848A0FBF703FD0223E4
:1053F0001022264904F5847001F020F8A0F5847588
:105400000027066205EB071000F584746E46CDF8A0
:1054100000A0CDF804A0CDF808A0CDF80CA0B442AF
:105420000DD0E168204600291CBF896888473146B5
:10543000039810B14268204690470398E0600399B2
:10544000684600291CBF896888477F1C022FD9D372
:105450004246494605F14C0002F0EEFD05F14C00D4
:10546000D5F8281102F0D0FD2A46094905F14C0073
:1054700002F078FE04B02846BDE8F08744A20000A0
:10548000449F000001A090E8618C00000B2F0000F9
:10549000135300002DE9F043054689B04648002724
:1054A000B9462860CDF81090CDF81490CDF818903A
:1054B000CDF81C90286804AE07F0FF080168284664
:1054C000884701F045FB079805EB08140028D4F83D
:1054D00014011CD0002808BF02F088FF04F5847472
:1054E000B4420DD0E168204600291CBF8968884776
:1054F000079818B142683146204690470798E06007
:105500000122414605F14C0002F0AAFE2AE00028E3
:1055100018BF02F09FFF6E4604F58474CDF800902A
:10552000CDF80490CDF80890CDF80C90B4420DD091
:10553000E168204600291CBF8968884731460398E6
:1055400010B14268204690470398E060039968468E
:1055500000291CBF896888470022414605F14C009C
:1055600002F07EFE01F024FB286841682846884747
:10557000079804AA10B18168104688477F1C022F43
:1055800090DB022310220D4905F58470FBF7ACFC7B
:10559000A86C05F13C0410B181682046884754F896
:1055A000040C103C10B181682046884709B0A4F172
:1055B0002C00BDE8F083000044A20000398C0000FC
:1055C00008B500F108010090D0F818C0604602F05C
:1055D0006DFF08BD016889680847826900F108010C
:1055E000104602F0E7BF000010B5044607482060EF
:1055F0000020A060E0602061606101F0A1FB04492F
:10560000A06102F0F3FF204610BD00005CA2000084
:10561000D555000010B504460448206004F1080187
:10562000A06902F0C7FF204610BD00005CA2000088
:10563000002908BF7047012909D0022918BF704707
:10564000016B002908BF7047096824300847016AC8
:10565000002908BF704709681430084770B584B046
:105660000D46064601F074FAE86806F12404B8B164
:10567000AC420ED0E168204600291CBF89688847EB
:105680003CB1E86818B14268294620469047E8686E
:10569000E0600122022106F1080001F04DFC22E049
:1056A00000206D460090019002900390AC420ED015
:1056B000E168204600291CBF896888473CB129461B
:1056C000039810B14268204690470398E060039920
:1056D000684600291CBF896888470022022106F11C
:1056E000080001F029FC04B0BDE8704001F060BA88
:1056F00070B50D46044601F02BFA2946201D01F035
:105700005BFCBDE8704001F053BA70B584B00D4643
:10571000064601F01DFAE86806F11404B8B1AC427F
:105720000ED0E168204600291CBF896888473CB13B
:10573000E86818B14268294620469047E868E0606A
:105740000122114606F1080001F0F6FB22E00020DC
:105750006D460090019002900390AC420ED0E1683B
:10576000204600291CBF896888473CB12946039818
:1057700010B14268204690470398E060039968465C
:1057800000291CBF896888470022012106F1080012
:1057900001F0D2FB04B0BDE8704001F009BA00008E
:1057A00070B504460E48206000206060A060E06094
:1057B00020616061A061E06120626062A062E062DD
:1057C0000D4620632346074A294604F1080001F0EC
:1057D00043FB2946201D01F0F3FA204670BD00006E
:1057E00070A200003156000010B504460C4820603D
:1057F00004F1080001F028FB206B243410B181680B
:105800002046884754F8040C103C10B181682046AB
:105810008847A4F11400BDE8104000F0D1BD00009D
:1058200070A2000070B5174C05462068002804BF20
:10583000201D2060261DB04204D05E22124913486C
:1058400001F0F4FE00212468114B1022084600BF2D
:1058500053F821C0AC4508BF43F82100491C521E33
:10586000F6D10848002C04BF011D01600068B04259
:1058700008BF70BD5E22BDE870400349034801F0D7
:10588000D5BE000020010020F4A30000E0A300002A
:1058900028010020002070470021FBF751B90020AB
:1058A0007047704770B5054600680E468168284607
:1058B0008847002405EB8400406828B146FA04F1CB
:1058C00001F0010101F0A2FB641C102CF2DB28683E
:1058D000C1682846BDE87040084770472DE9FF4F72
:1058E00091B00DF17C0E05469EE8DF1FDFF898E0D1
:1058F000C5F800E0DDF848E0CDF800E0DDF84CE068
:10590000CDF804E0DDF850E0CDF808E0DDF878E00F
:10591000CDE90A78CDF80CE0CDE90401CDE90846DF
:10592000CDE90623CDE90C9ACDE90EBC4FF0000875
:1059300044466F464FF00109C5F8448057F82400EB
:10594000B0F1FF3F08BF002609D0042000F03AFD67
:1059500057F824100646C0F8008001F045FA05EB20
:105960008400466057F82400B0F1FF3F04D0686C13
:1059700009FA04F108436864641C102CDEDB15B0DE
:105980002846BDE8F08F000080A2000070B50546F3
:1059900007480024C5F8000005EB84004068002893
:1059A00018BF00F00DFD641C102CF5DB284670BDFF
:1059B00080A2000010B52DED028B0446B0EE408AA7
:1059C00001F0C6F800BFA07818B902F00FFD012061
:1059D000A07000BFB0EE480A204602F061FA01F064
:1059E000E7F8BDEC028B10BD70B504460D4601F022
:1059F000AFF82946204602F0A9F901F0D9F870BDA8
:105A000010B5044601F0A4F800BFA078012803D126
:105A100002F020FD0020A07000BF01F0C9F8204670
:105A200010BD70477047000010B51C46029BFFF781
:105A3000A5FC214600F5967000F066F8A0F596707A
:105A4000044901608031C0F830116039C0F82C1170
:105A500010BD000098A2000010B509490160803116
:105A6000C0F830116039C0F82C1100F5967000F0C4
:105A70007FF8BDE81040A0F59670FFF70BBD000061
:105A800098A2000070470020704700207047002057
:105A900070472DE9F041054600680F460C468E1808
:105AA000016D28468847B4420AD0286814F8011BC3
:105AB000826C28469047B0F1FF3F18BFB442F4D142
:105AC0002868416D28468847E01BBDE8F08100202A
:105AD00070470FB470B504460068016D20468847D2
:105AE00006AD6069FAF78DFF2A4660690599FAF7F5
:105AF00067FF05462068416D20468847284670BCF0
:105B00005DF814FB7047000038B5104A40F8042BCC
:105B1000002200F00DFA041F0D48206000256030BF
:105B2000656160600BA1204600F0F2F801000846B4
:105B3000616102D0FFF7B0FE06E02A46002306A10D
:105B40000A48009501F0CCFD204638BDF4A10000C4
:105B500028A30000772B000053747265616D206FDD
:105B6000626A206661696C757265000019010180C6
:105B700010B5044605482060603060606069FAF73F
:105B8000E9FF201D00F0F4F9001F10BD28A300005C
:105B900070B515461E46044600F0DAFF2046FFF7B2
:105BA0001CFDC4E90856A06902F0F5FCD4E90823FD
:105BB00082184B412046FFF703FDBDE8704000F01E
:105BC000F7BF30B585B0044600F0C2FF2046FFF7AE
:105BD00004FD606B00281EBF94F83800002802F016
:105BE00039FC6D460020283400900190029003900B
:105BF000AC420ED0E168204600291CBF8968884766
:105C00003CB12946039810B142682046904703985A
:105C1000E0600399684600291CBF8968884700F046
:105C2000C7FF05B030BD10B50446D4E90801D4E97A
:105C3000022312184B412046FFF7C2FC616B00297A
:105C400008BF10BD04F128000968BDE810400847EE
:105C50002DE9F047054689461746984600F078FF3B
:105C600000BF686B08B1012000E0002020B995F862
:105C7000380008B102F0BAFB05F12804CA465445C1
:105C80000BD0204602F0D8FF00BF00BF261E04D074
:105C90005146304602F09EFF064600BF3A46434654
:105CA0002846FFF775FF00F083FFBDE8F08700008E
:105CB00070B504462046FFF797FC0446204600BF17
:105CC00004461148206004F1280000222AB900216E
:105CD000016041608160C1600EE0014600250D60F9
:105CE0004D608D60CD60084600BF031E00D01A6075
